{
  "contractName": "Jobs",
  "abi": [
    {
      "constant": true,
      "inputs": [
        {
          "name": "",
          "type": "uint256"
        }
      ],
      "name": "jobs",
      "outputs": [
        {
          "name": "index",
          "type": "uint256"
        },
        {
          "name": "active",
          "type": "bool"
        },
        {
          "name": "addr",
          "type": "address"
        },
        {
          "name": "accType",
          "type": "uint8"
        },
        {
          "name": "name",
          "type": "string"
        },
        {
          "name": "expertise",
          "type": "uint8"
        },
        {
          "name": "year",
          "type": "uint256"
        },
        {
          "name": "DoW",
          "type": "uint256"
        },
        {
          "name": "salary",
          "type": "uint256"
        }
      ],
      "payable": false,
      "stateMutability": "view",
      "type": "function"
    },
    {
      "constant": true,
      "inputs": [
        {
          "name": "",
          "type": "address"
        }
      ],
      "name": "seekers",
      "outputs": [
        {
          "name": "",
          "type": "bool"
        }
      ],
      "payable": false,
      "stateMutability": "view",
      "type": "function"
    },
    {
      "constant": true,
      "inputs": [],
      "name": "version",
      "outputs": [
        {
          "name": "",
          "type": "string"
        }
      ],
      "payable": false,
      "stateMutability": "view",
      "type": "function"
    },
    {
      "constant": true,
      "inputs": [],
      "name": "owner",
      "outputs": [
        {
          "name": "",
          "type": "address"
        }
      ],
      "payable": false,
      "stateMutability": "view",
      "type": "function"
    },
    {
      "constant": true,
      "inputs": [],
      "name": "jobIndex",
      "outputs": [
        {
          "name": "",
          "type": "uint256"
        }
      ],
      "payable": false,
      "stateMutability": "view",
      "type": "function"
    },
    {
      "inputs": [],
      "payable": false,
      "stateMutability": "nonpayable",
      "type": "constructor"
    },
    {
      "constant": false,
      "inputs": [
        {
          "name": "_accType",
          "type": "uint8"
        },
        {
          "name": "_name",
          "type": "string"
        },
        {
          "name": "_expertise",
          "type": "uint8"
        },
        {
          "name": "_year",
          "type": "uint256"
        },
        {
          "name": "_Dow",
          "type": "uint256"
        },
        {
          "name": "_salary",
          "type": "uint256"
        }
      ],
      "name": "SignUp",
      "outputs": [],
      "payable": false,
      "stateMutability": "nonpayable",
      "type": "function"
    }
  ],
  "bytecode": "0x60806040526040805190810160405280600581526020017f302e302e310000000000000000000000000000000000000000000000000000008152506004908051906020019061004f9291906100a3565b5034801561005c57600080fd5b5033600360006101000a81548173ffffffffffffffffffffffffffffffffffffffff021916908373ffffffffffffffffffffffffffffffffffffffff160217905550610148565b828054600181600116156101000203166002900490600052602060002090601f016020900481019282601f106100e457805160ff1916838001178555610112565b82800160010185558215610112579182015b828111156101115782518255916020019190600101906100f6565b5b50905061011f9190610123565b5090565b61014591905b80821115610141576000816000905550600101610129565b5090565b90565b6108ef806101576000396000f300608060405260043610610078576000357c0100000000000000000000000000000000000000000000000000000000900463ffffffff168063180aedf31461007d578063491a5af3146101a7578063526755bc1461020257806354fd4d50146102a35780638da5cb5b14610333578063b77728181461038a575b600080fd5b34801561008957600080fd5b506100a8600480360381019080803590602001909291905050506103b5565b604051808a8152602001891515151581526020018873ffffffffffffffffffffffffffffffffffffffff1673ffffffffffffffffffffffffffffffffffffffff1681526020018760018111156100fa57fe5b60ff1681526020018060200186600481111561011257fe5b60ff168152602001858152602001848152602001838152602001828103825287818151815260200191508051906020019080838360005b83811015610164578082015181840152602081019050610149565b50505050905090810190601f1680156101915780820380516001836020036101000a031916815260200191505b509a505050505050505050505060405180910390f35b3480156101b357600080fd5b506101e8600480360381019080803573ffffffffffffffffffffffffffffffffffffffff1690602001909291905050506104e2565b604051808215151515815260200191505060405180910390f35b34801561020e57600080fd5b506102a1600480360381019080803560ff169060200190929190803590602001908201803590602001908080601f0160208091040260200160405190810160405280939291908181526020018383808284378201915050505050509192919290803560ff169060200190929190803590602001909291908035906020019092919080359060200190929190505050610502565b005b3480156102af57600080fd5b506102b8610754565b6040518080602001828103825283818151815260200191508051906020019080838360005b838110156102f85780820151818401526020810190506102dd565b50505050905090810190601f1680156103255780820380516001836020036101000a031916815260200191505b509250505060405180910390f35b34801561033f57600080fd5b506103486107f2565b604051808273ffffffffffffffffffffffffffffffffffffffff1673ffffffffffffffffffffffffffffffffffffffff16815260200191505060405180910390f35b34801561039657600080fd5b5061039f610818565b6040518082815260200191505060405180910390f35b60016020528060005260406000206000915090508060000154908060010160009054906101000a900460ff16908060010160019054906101000a900473ffffffffffffffffffffffffffffffffffffffff16908060010160159054906101000a900460ff1690806002018054600181600116156101000203166002900480601f0160208091040260200160405190810160405280929190818152602001828054600181600116156101000203166002900480156104b35780601f10610488576101008083540402835291602001916104b3565b820191906000526020600020905b81548152906001019060200180831161049657829003601f168201915b5050505050908060030160009054906101000a900460ff16908060040154908060050154908060060154905089565b60006020528060005260406000206000915054906101000a900460ff1681565b6000803373ffffffffffffffffffffffffffffffffffffffff1673ffffffffffffffffffffffffffffffffffffffff16815260200190815260200160002060009054906101000a900460ff1615151561055a57600080fd5b6002600081548092919060010191905055506101206040519081016040528060025481526020016001151581526020013373ffffffffffffffffffffffffffffffffffffffff1681526020018760018111156105b257fe5b81526020018681526020018560048111156105c957fe5b8152602001848152602001838152602001828152506001600060025481526020019081526020016000206000820151816000015560208201518160010160006101000a81548160ff02191690831515021790555060408201518160010160016101000a81548173ffffffffffffffffffffffffffffffffffffffff021916908373ffffffffffffffffffffffffffffffffffffffff16021790555060608201518160010160156101000a81548160ff0219169083600181111561068857fe5b021790555060808201518160020190805190602001906106a992919061081e565b5060a08201518160030160006101000a81548160ff021916908360048111156106ce57fe5b021790555060c0820151816004015560e08201518160050155610100820151816006015590505060016000803373ffffffffffffffffffffffffffffffffffffffff1673ffffffffffffffffffffffffffffffffffffffff16815260200190815260200160002060006101000a81548160ff021916908315150217905550505050505050565b60048054600181600116156101000203166002900480601f0160208091040260200160405190810160405280929190818152602001828054600181600116156101000203166002900480156107ea5780601f106107bf576101008083540402835291602001916107ea565b820191906000526020600020905b8154815290600101906020018083116107cd57829003601f168201915b505050505081565b600360009054906101000a900473ffffffffffffffffffffffffffffffffffffffff1681565b60025481565b828054600181600116156101000203166002900490600052602060002090601f016020900481019282601f1061085f57805160ff191683800117855561088d565b8280016001018555821561088d579182015b8281111561088c578251825591602001919060010190610871565b5b50905061089a919061089e565b5090565b6108c091905b808211156108bc5760008160009055506001016108a4565b5090565b905600a165627a7a72305820bf5e62de8354a33d13375dde70ca4600945e24003279735822fdcab28a7b57610029",
  "source": "pragma solidity ^0.4.23;\n\ncontract Jobs {\n\n  enum AccountType {JobSeeker, Recruiter}\n\n  enum ExpertiseType {Engineer, GraphicDesigner, WebDeveloper, Driver, Manager}\n\n  struct Job{\n    uint256 index;\n    bool active;\n    address addr;\n    AccountType accType;\n    string name;\n    ExpertiseType expertise;\n    uint256 year;\n    uint256 DoW;\n    uint256 salary;\n  }\n\n  mapping(address => bool) public seekers;\n  mapping(uint256 => Job) public jobs;\n\n  uint256 public jobIndex;\n\n  address public owner;\n\n  string public version = '0.0.1';\n\n  constructor() public {\n    owner = msg.sender;\n  }\n\n  function SignUp(AccountType _accType, string _name, ExpertiseType _expertise, uint256 _year, uint256 _Dow, uint256 _salary) public {\n    require(!seekers[msg.sender]);\n\n    jobIndex++;\n    jobs[jobIndex] = Job(jobIndex, true, msg.sender, _accType, _name, _expertise, _year, _Dow, _salary);\n\n    seekers[msg.sender] = true;\n\n  }\n\n}\n",
  "sourcePath": "C:\\xampp\\htdocs\\BLOCKCHAIN\\Jobs-Ethereum-PoC\\contracts\\Jobs.sol",
  "compiler": {
    "name": "solc",
    "version": "0.4.24+commit.e67f0147.Emscripten.clang"
  },
  "schemaVersion": "2.0.1",
  "updatedAt": "2018-07-24T18:37:33.160Z"
}